{
  "contractName": "StakingPlatform",
  "abi": [
    {
      "inputs": [],
      "stateMutability": "payable",
      "type": "constructor",
      "payable": true
    },
    {
      "anonymous": false,
      "inputs": [
        {
          "indexed": true,
          "internalType": "address",
          "name": "user",
          "type": "address"
        },
        {
          "indexed": false,
          "internalType": "uint256",
          "name": "amount",
          "type": "uint256"
        }
      ],
      "name": "Staked",
      "type": "event"
    },
    {
      "anonymous": false,
      "inputs": [
        {
          "indexed": true,
          "internalType": "address",
          "name": "user",
          "type": "address"
        },
        {
          "indexed": false,
          "internalType": "uint256",
          "name": "amount",
          "type": "uint256"
        },
        {
          "indexed": false,
          "internalType": "uint256",
          "name": "reward",
          "type": "uint256"
        }
      ],
      "name": "Unstaked",
      "type": "event"
    },
    {
      "inputs": [],
      "name": "owner",
      "outputs": [
        {
          "internalType": "address",
          "name": "",
          "type": "address"
        }
      ],
      "stateMutability": "view",
      "type": "function",
      "constant": true
    },
    {
      "inputs": [],
      "name": "rewardRate",
      "outputs": [
        {
          "internalType": "uint256",
          "name": "",
          "type": "uint256"
        }
      ],
      "stateMutability": "view",
      "type": "function",
      "constant": true
    },
    {
      "inputs": [
        {
          "internalType": "address",
          "name": "",
          "type": "address"
        }
      ],
      "name": "rewards",
      "outputs": [
        {
          "internalType": "uint256",
          "name": "",
          "type": "uint256"
        }
      ],
      "stateMutability": "view",
      "type": "function",
      "constant": true
    },
    {
      "inputs": [
        {
          "internalType": "address",
          "name": "",
          "type": "address"
        }
      ],
      "name": "stakes",
      "outputs": [
        {
          "internalType": "uint256",
          "name": "amount",
          "type": "uint256"
        },
        {
          "internalType": "uint256",
          "name": "startTime",
          "type": "uint256"
        }
      ],
      "stateMutability": "view",
      "type": "function",
      "constant": true
    },
    {
      "inputs": [],
      "name": "stake",
      "outputs": [],
      "stateMutability": "payable",
      "type": "function",
      "payable": true
    },
    {
      "inputs": [],
      "name": "unstake",
      "outputs": [],
      "stateMutability": "nonpayable",
      "type": "function"
    },
    {
      "inputs": [
        {
          "internalType": "address",
          "name": "staker",
          "type": "address"
        }
      ],
      "name": "calculateReward",
      "outputs": [
        {
          "internalType": "uint256",
          "name": "",
          "type": "uint256"
        }
      ],
      "stateMutability": "view",
      "type": "function",
      "constant": true
    },
    {
      "inputs": [],
      "name": "getContractBalance",
      "outputs": [
        {
          "internalType": "uint256",
          "name": "",
          "type": "uint256"
        }
      ],
      "stateMutability": "view",
      "type": "function",
      "constant": true
    },
    {
      "inputs": [
        {
          "internalType": "address",
          "name": "staker",
          "type": "address"
        }
      ],
      "name": "getStakingDetails",
      "outputs": [
        {
          "internalType": "uint256",
          "name": "",
          "type": "uint256"
        },
        {
          "internalType": "uint256",
          "name": "",
          "type": "uint256"
        }
      ],
      "stateMutability": "view",
      "type": "function",
      "constant": true
    }
  ],
  "bytecode": "0x608060405260646002556000341161004c576040517f08c379a0000000000000000000000000000000000000000000000000000000008152600401610043906100ef565b60405180910390fd5b33600360006101000a81548173ffffffffffffffffffffffffffffffffffffffff021916908373ffffffffffffffffffffffffffffffffffffffff16021790555061010f565b600082825260208201905092915050565b7f496e697469616c2066756e64696e672072657175697265640000000000000000600082015250565b60006100d9601883610092565b91506100e4826100a3565b602082019050919050565b60006020820190508181036000830152610108816100cc565b9050919050565b610c5f8061011e6000396000f3fe6080604052600436106100865760003560e01c80636f5492e2116100595780636f5492e2146101275780636f9fb98a146101655780637b0a47ee146101905780638da5cb5b146101bb578063d82e3962146101e657610086565b80630700037d1461008b57806316934fc4146100c85780632def6620146101065780633a4b66f11461011d575b600080fd5b34801561009757600080fd5b506100b260048036038101906100ad91906107fb565b610223565b6040516100bf9190610841565b60405180910390f35b3480156100d457600080fd5b506100ef60048036038101906100ea91906107fb565b61023b565b6040516100fd92919061085c565b60405180910390f35b34801561011257600080fd5b5061011b61025f565b005b6101256104b2565b005b34801561013357600080fd5b5061014e600480360381019061014991906107fb565b610618565b60405161015c92919061085c565b60405180910390f35b34801561017157600080fd5b5061017a61066f565b6040516101879190610841565b60405180910390f35b34801561019c57600080fd5b506101a5610677565b6040516101b29190610841565b60405180910390f35b3480156101c757600080fd5b506101d061067d565b6040516101dd9190610894565b60405180910390f35b3480156101f257600080fd5b5061020d600480360381019061020891906107fb565b6106a3565b60405161021a9190610841565b60405180910390f35b60016020528060005260406000206000915090505481565b60006020528060005260406000206000915090508060000154908060010154905082565b60008060003373ffffffffffffffffffffffffffffffffffffffff1673ffffffffffffffffffffffffffffffffffffffff168152602001908152602001600020905060008160000154116102e8576040517f08c379a00000000000000000000000000000000000000000000000000000000081526004016102df9061090c565b60405180910390fd5b60006102f3336106a3565b90506000818360000154610307919061095b565b90508047101561034c576040517f08c379a0000000000000000000000000000000000000000000000000000000008152600401610343906109fd565b60405180910390fd5b60008360000181905550600083600101819055506000600160003373ffffffffffffffffffffffffffffffffffffffff1673ffffffffffffffffffffffffffffffffffffffff1681526020019081526020016000208190555060003373ffffffffffffffffffffffffffffffffffffffff16826040516103cb90610a4e565b60006040518083038185875af1925050503d8060008114610408576040519150601f19603f3d011682016040523d82523d6000602084013e61040d565b606091505b5050905080610451576040517f08c379a000000000000000000000000000000000000000000000000000000000815260040161044890610aaf565b60405180910390fd5b3373ffffffffffffffffffffffffffffffffffffffff167f7fc4727e062e336010f2c282598ef5f14facb3de68cf8195c2f23e1454b2b74e84846104959190610acf565b856040516104a492919061085c565b60405180910390a250505050565b600034116104f5576040517f08c379a00000000000000000000000000000000000000000000000000000000081526004016104ec90610b4f565b60405180910390fd5b60008060003373ffffffffffffffffffffffffffffffffffffffff1673ffffffffffffffffffffffffffffffffffffffff16815260200190815260200160002090506000816000015411156105a35761054d336106a3565b600160003373ffffffffffffffffffffffffffffffffffffffff1673ffffffffffffffffffffffffffffffffffffffff168152602001908152602001600020600082825461059b919061095b565b925050819055505b348160000160008282546105b7919061095b565b925050819055504281600101819055503373ffffffffffffffffffffffffffffffffffffffff167f9e71bc8eea02a63969f509818f2dafb9254532904319f9dbda79b67bd34a5f3d3460405161060d9190610841565b60405180910390a250565b6000806000808473ffffffffffffffffffffffffffffffffffffffff1673ffffffffffffffffffffffffffffffffffffffff16815260200190815260200160002060000154610666846106a3565b91509150915091565b600047905090565b60025481565b600360009054906101000a900473ffffffffffffffffffffffffffffffffffffffff1681565b6000806000808473ffffffffffffffffffffffffffffffffffffffff1673ffffffffffffffffffffffffffffffffffffffff16815260200190815260200160002090506000816000015414156106fd576000915050610793565b600081600101544261070f9190610acf565b9050600064496cebb80082600254856000015461072c9190610b6f565b6107369190610b6f565b6107409190610bf8565b9050600160008673ffffffffffffffffffffffffffffffffffffffff1673ffffffffffffffffffffffffffffffffffffffff168152602001908152602001600020548161078d919061095b565b93505050505b919050565b600080fd5b600073ffffffffffffffffffffffffffffffffffffffff82169050919050565b60006107c88261079d565b9050919050565b6107d8816107bd565b81146107e357600080fd5b50565b6000813590506107f5816107cf565b92915050565b60006020828403121561081157610810610798565b5b600061081f848285016107e6565b91505092915050565b6000819050919050565b61083b81610828565b82525050565b60006020820190506108566000830184610832565b92915050565b60006040820190506108716000830185610832565b61087e6020830184610832565b9392505050565b61088e816107bd565b82525050565b60006020820190506108a96000830184610885565b92915050565b600082825260208201905092915050565b7f4e6f207374616b656420616d6f756e7400000000000000000000000000000000600082015250565b60006108f66010836108af565b9150610901826108c0565b602082019050919050565b60006020820190508181036000830152610925816108e9565b9050919050565b7f4e487b7100000000000000000000000000000000000000000000000000000000600052601160045260246000fd5b600061096682610828565b915061097183610828565b9250827fffffffffffffffffffffffffffffffffffffffffffffffffffffffffffffffff038211156109a6576109a561092c565b5b828201905092915050565b7f496e73756666696369656e7420636f6e74726163742062616c616e6365000000600082015250565b60006109e7601d836108af565b91506109f2826109b1565b602082019050919050565b60006020820190508181036000830152610a16816109da565b9050919050565b600081905092915050565b50565b6000610a38600083610a1d565b9150610a4382610a28565b600082019050919050565b6000610a5982610a2b565b9150819050919050565b7f5472616e73666572206661696c65640000000000000000000000000000000000600082015250565b6000610a99600f836108af565b9150610aa482610a63565b602082019050919050565b60006020820190508181036000830152610ac881610a8c565b9050919050565b6000610ada82610828565b9150610ae583610828565b925082821015610af857610af761092c565b5b828203905092915050565b7f43616e6e6f74207374616b652030000000000000000000000000000000000000600082015250565b6000610b39600e836108af565b9150610b4482610b03565b602082019050919050565b60006020820190508181036000830152610b6881610b2c565b9050919050565b6000610b7a82610828565b9150610b8583610828565b9250817fffffffffffffffffffffffffffffffffffffffffffffffffffffffffffffffff0483118215151615610bbe57610bbd61092c565b5b828202905092915050565b7f4e487b7100000000000000000000000000000000000000000000000000000000600052601260045260246000fd5b6000610c0382610828565b9150610c0e83610828565b925082610c1e57610c1d610bc9565b5b82820490509291505056fea264697066735822122014541d85560a5dd7545e781dd07cffc27d4077198cb0a4c00b90d98533f055b664736f6c634300080b0033",
  "immutableReferences": {},
  "source": "// SPDX-License-Identifier: MIT\npragma solidity ^0.8.0;\n\ncontract StakingPlatform {\n    struct Stake {\n        uint256 amount;\n        uint256 startTime;\n    }\n\n    mapping(address => Stake) public stakes;\n    mapping(address => uint256) public rewards;\n    uint256 public rewardRate = 100; // Reward rate in basis points (1%)\n    address public owner;\n\n    event Staked(address indexed user, uint256 amount);\n    event Unstaked(address indexed user, uint256 amount, uint256 reward);\n\n    constructor() payable{\n        require(msg.value > 0, \"Initial funding required\");\n        owner = msg.sender;\n    }\n\n    function stake() external payable {\n        require(msg.value > 0, \"Cannot stake 0\");\n\n        Stake storage userStake = stakes[msg.sender];\n        \n        // Calculate and update pending rewards before staking more\n        if (userStake.amount > 0) {\n            rewards[msg.sender] += calculateReward(msg.sender);\n        }\n\n        userStake.amount += msg.value;\n        userStake.startTime = block.timestamp;\n\n        emit Staked(msg.sender, msg.value);\n    }\n\n    function unstake() external {\n        Stake storage userStake = stakes[msg.sender];\n        require(userStake.amount > 0, \"No staked amount\");\n\n        uint256 reward = calculateReward(msg.sender);\n        uint256 amountToTransfer = userStake.amount + reward;\n\n        require(address(this).balance >= amountToTransfer, \"Insufficient contract balance\");\n\n        // Reset user staking data before transferring funds\n        userStake.amount = 0;\n        userStake.startTime = 0;\n        rewards[msg.sender] = 0;\n\n        // Perform the transfer using `call`\n        (bool success, ) = msg.sender.call{value: amountToTransfer}(\"\");\n        require(success, \"Transfer failed\");\n\n        emit Unstaked(msg.sender, amountToTransfer - reward, reward);\n    }\n\n    function calculateReward(address staker) public view returns (uint256) {\n        Stake storage userStake = stakes[staker];\n        if (userStake.amount == 0) {\n            return 0;\n        }\n\n        uint256 stakingDuration = block.timestamp - userStake.startTime;\n        uint256 reward = (userStake.amount * rewardRate * stakingDuration) / (365 days * 10000);\n        return reward + rewards[staker];\n    }\n\n    function getContractBalance() public view returns (uint256) {\n        return address(this).balance;\n    }\n\n    function getStakingDetails(address staker) external view returns (uint256, uint256) {\n        return (stakes[staker].amount, calculateReward(staker));\n    }\n}\n",
  "sourcePath": "/Users/ashrithakondapally/Desktop/Staking-main/src/contracts/stake.sol",
  "compiler": {
    "name": "solc",
    "version": "0.8.11+commit.d7f03943.Emscripten.clang"
  },
  "schemaVersion": "3.4.4",
  "updatedAt": "2024-08-21T17:43:53.771Z",
  "networkType": "ethereum",
  "devdoc": {
    "kind": "dev",
    "methods": {},
    "version": 1
  },
  "userdoc": {
    "kind": "user",
    "methods": {},
    "version": 1
  }
}